:100200000C9451010C9479010C9479010C947901AE
:100210000C9479010C9479010C9479010C94790176
:100220000C9479010C9479010C9479010C94790166
:100230000C9479010C9479010C9481090C94320A84
:100240000C9479010C9479010C9479010C94790146
:100250000C9479010C9479010C9479010C94790136
:100260000C9479010C94F20A0C9479010C947901A4
:100270000C9479010C9479010C9479010C94790116
:100280000C9479010C9479010C9479010C94790106
:100290000C941D090C94EF080C94C9080C94790176
:1002A0001F0C11241FBECFEFCDBFDFE3DEBF2AE25C
:1002B000AAE0B8E201C01D92A83AB207E1F718E23D
:1002C000A0E0B8E2EDEEF4E202C005900D92AA3093
:1002D000B107D9F711E0C1E5D1E004C02197FE01D3
:1002E0000E94EE11C035D107C9F70E94F90C0C9499
:1002F000F4110C940001AF92BF92CF92DF92EF9273
:10030000FF920F931F93CF93DF936C017B018B01BF
:10031000040F151FEB015E01AE18BF08C017D1070F
:1003200059F06991D601ED91FC910190F081E02D99
:10033000C6010995892B79F7C501DF91CF911F91EE
:100340000F91FF90EF90DF90CF90BF90AF90089506
:10035000FC0154894589252F30E0842F90E0821BD1
:10036000930B541710F0CF96089501970895FC0150
:1003700092898389981761F0A389AE0FBF2FB11DB1
:1003800059968C9193899F5F9F73938B90E008950A
:100390008FEF9FEF0895FC0192898389981731F0C0
:1003A0008389E80FF11D818D90E008958FEF9FEF15
:1003B0000895FC0192892389892F90E0805C9F4FEA
:1003C000821B91098F7399270895CF93DF93EC01D6
:1003D000E881F9810680F781E02D0995EC85FD859E
:1003E00086818F738683EC85FD8585818F758583F6
:1003F0008B898A8B198ADF91CF910895CF93DF93F0
:10040000FC0194898589C485D585981306C08D81A2
:100410008F7D8D83DF91CF910895A589AE0FBF2F7A
:10042000B11DA75ABF4F2C91858990E001968F731B
:100430009927858B80E48C83A485B58512962C93AF
:10044000948985899813E6CFA485B58515968C91F6
:1004500015978F7D15968C9387898823D9F2808D87
:1004600080931301178AD6CFDC011C96ED91FC9185
:100470000FB607FE03C0258125FD04C0248125FD9C
:100480000C94FE010895EF92FF920F931F93CF9368
:10049000DF93EC0181E0898B9C898D8998131CC0C6
:1004A000AC85BD8514968C91149785FF15C0129666
:1004B0006C93AC85BD8580E414968C93EC85FD85AA
:1004C00085818F7D858381E090E0DF91CF911F91C1
:1004D0000F91FF90EF9008958091110180FF08C067
:1004E00080911301888F8E898093130181E08F8B17
:1004F000F62E0C8910E00F5F1F4F0F731127E02EAF
:100500008D898E1104C0CE010E943402F9CFEC898E
:10051000EC0FFD2FF11DE75AFF4FF0820C8BEC859D
:10052000FD8585818062CECFCF93DF93FC01218949
:100530002223C9F0EC018091110180FF08C0809155
:100540001301808F86898093130181E0878BEC856E
:10055000FD85858185FD03C0848186FD04C0CE01B3
:100560000E943402F4CFDF91CF91089581E0089585
:100570000895282F30E0F901E959FB4940814F3FA8
:1005800009F44EC0893258F4F901E451FC49E08184
:10059000EE2329F0E13099F010F0E63010F1F90186
:1005A000E25CFB49E081A0E2EA9FF0011124FC5FDC
:1005B0008081842311F1672BF1F446830895E09143
:1005C000010AD901AB5EBB495C915C5F81E090E0C0
:1005D00001C0880F5A95EAF780958E238093010A0F
:1005E000DECF80E1E89FF0011124E05AF54F8181D0
:1005F0008F7E8183D4CF458308952B5E3B49D901FB
:100600008C91309771F08F3F61F07096E80FF11D7B
:100610009FB7F8948081672B39F4877F80839FBFD1
:100620000895F0E0E0E0F4CF8860F8CFCF93DF9357
:1006300090E0FC01E959FB4920812F3F71F0FC015A
:10064000E25CFB49A08130E2A39FD0011124BC5F92
:100650006130710529F411962C93DF91CF910895A3
:100660008B5E9B49EC01E881EF3F89F0CD0140961C
:10067000E80FF92FF11D9FB7F89412962C93808103
:100680006230710539F4886080839FBFE6CFF0E067
:10069000E0E0F1CF877FF8CF893210F40C94160395
:1006A0000895CF92DF92EF92FF920F931F93CF9313
:1006B000DF93EC016A017B01022F8989882339F0DD
:1006C000E881F9810288F389E02DCE0109959889A6
:1006D0008091E205892B8093E2051FB7F89460E0D2
:1006E00070E281EA97E0A70196010E94F910690182
:1006F0007A018FEFC81AD80AE80AF80AF694E79444
:10070000D794C794EC85FD8586818D7F8683EC85A3
:10071000FD8586818683198AA09123110A2E000CFB
:10072000BB0BA70196010E94E61120E034E040E0F7
:1007300050E00E94C711EC85FD85C20ED31EE41E59
:10074000F51EC086D186EC85FD850783EC85FD8589
:100750008681806C8683EC85FD85858180688583B4
:100760008E8562E070E00E944C038F85893220F410
:1007700061E070E00E94B9028F8561E070E00E9444
:100780004C031FBFDF91CF911F910F91FF90EF900E
:10079000DF90CF900895CF93DF938FB7F894209197
:1007A0005D2930915E2940915F2950916029E09147
:1007B000BA0A9091B60A90FF06C02F5F3F4F4F4F85
:1007C0005F4FE091BA0A8FBFA0916729B091682965
:1007D000C0916529D09166290E941B11EC9F900160
:1007E000ED9F300D1124620F731F811D911DDF914C
:1007F000CF9108958F929F92AF92BF92CF92DF9246
:10080000EF92FF924B015C010E94CB036B017C01D4
:10081000A8EEB3E0A50194010E941B11C60ED71EDD
:10082000E81EF91EC616D706E806F90618F40E9457
:10083000CB03F8CF0E94CB036C157D058E059F0579
:10084000C8F3FF90EF90DF90CF90BF90AF909F9054
:100850008F9008952FB7F8946091592970915A2973
:1008600080915B2990915C292FBF08950F9391E0AF
:1008700090935629109255296093532970935429C7
:1008800040935229209351291092502910924F29B8
:1008900000934E29880F80934D2923E030E044E0F7
:1008A00050E080915229882341F020934B293093C6
:1008B0004C2980914D298E7F0BC08091512988232E
:1008C00051F040934B2950934C2980914D298160E0
:1008D0008093A70808C080915229811104C080919B
:1008E0005129882311F3809155298823E1F38091C0
:1008F00055298330B1F280915129882321F08091CC
:100900004F290F91089580915529823031F085301B
:1009100031F0813031F480E0F4CF81E0F2CF83E038
:10092000F0CF84E0EECFE0EAF8E091859066918721
:1009300022E030E020934B2930934C2980933D29CD
:1009400010923C29089581E080933C2910923D2922
:1009500093E09093AA089091AB0891FF10C0109279
:100960004929E0913A29F0913B290995809348293A
:1009700085E090E080934B2990934C290895109244
:100980004A298093472986E090E0F4CF6093382984
:100990007093392908956093362970933729089503
:1009A000E0913829F0913929309741F0109235299A
:1009B00010923429099580913429089580E0089592
:1009C000E0913629F0913729309759F03091332949
:1009D00020913229321728F010923329809332293E
:1009E00009940895E091332980913229E81730F471
:1009F000F0E0EE54F74D808190E008958FEF9FEF87
:100A0000089590913329809132292FEF3FEF981765
:100A100048F4E92FF0E0EE54F74D208130E09F5F7D
:100A200090933329C90108958091322990913329F7
:100A3000891B990B0895CF92DF92EF92FF920F934B
:100A40001F93CF93DF937C018A01EB016B01C40EEE
:100A5000D51ECC15DD0551F06991D701ED91FC91C2
:100A60000190F081E02DC7010995F3CFC801DF9116
:100A7000CF911F910F91FF90EF90DF90CF9008954D
:100A80002091342927FF08C021E030E0FC012283B7
:100A9000338390E080E0089580913529E82FF0E0DD
:100AA000EE5CF74D60838F5F809335298093342906
:100AB00081E090E0089560E087E09AE20C944005C0
:100AC000DC01ED91FC91008CF18DE02D61E0099449
:100AD0000F9380914B2990914C290197A1F480911B
:100AE0005629811112C0062F20E04091342962E37B
:100AF00078E2809131280E943604109235291092B4
:100B000034290F91089580E0F8CF81E0F6CF60930B
:100B1000312810923529109234290895CF93DF930C
:100B2000D82FC62F6091A72A87E09AE20E948705F6
:100B30006D2F87E09AE20E9440056C2F87E09AE2D1
:100B40000E94400587E09AE2DF91CF910C94600506
:100B5000DC01ED91FC91048CF58DE02D21E00994F0
:100B60000F9382EB98E280933E2990933F298091E6
:100B70004B2990914C290197C1F4809156298111FC
:100B800016C0FA014138510510F0E0E8F0E0022FFC
:100B9000862F2E2F40E070E060E00E943604109215
:100BA0003329809332290F91089580E0F8CF81E0B6
:100BB000F6CF8F929F92AF92BF92CF92DF92EF9239
:100BC000FF92CF93DF9340348DE0580783E06807AE
:100BD000710508F44EC0411585E358078CE068079D
:100BE000710508F43FC040385F446241710508F068
:100BF00040C0C8E7D0E020E432E44FE050E080900D
:100C0000002890900128A0900228B0900328C501E8
:100C1000B4010E94F91069017A018AE0C81AD1086A
:100C2000E108F108DE01A50194010E941B1120E0FA
:100C30003AEC4AE95BE30E94F910C21AD30AE40ACB
:100C4000F50AF694E794D794C794C092A608DF916A
:100C5000CF91FF90EF90DF90CF90BF90AF909F909B
:100C60008F900895CCE2D1E020E83AE146E050E0F0
:100C7000C6CFC8EED3E020EA36E841E050E0BFCF6F
:100C8000E0EAF8E01382168281E0858314861186FB
:100C900010924B2910924C290895109233291092EA
:100CA0003229109235291092342980914B29909144
:100CB0004C29892BD9F482E090E080934B299093C2
:100CC0004C2910924A291092492910923C291092DD
:100CD0003D291092302810924729660F6093AC0886
:100CE00081EE8093A90881E08093A30880ED94E0D1
:100CF00080933A2990933B2982E398E2809340299C
:100D00009093412980EE94E0809345299093462961
:100D100082EB98E2809342299093432980E8809364
:100D2000442908958F929F92AF92BF92CF92DF9203
:100D3000EF92FF92109233291092322910923529A6
:100D40001092342980914B2990914C29892B09F0DC
:100D500045C08091E3058093E30581E090E08093B6
:100D60004B2990934C2910924F29109250291092A0
:100D700056291092552981EC8093A3088090002871
:100D800090900128A0900228B0900328C501B401DA
:100D900020EA36E841E050E00E94F91069017A014A
:100DA0008AE0C81AD108E108F108A8EEB3E0A5016D
:100DB00094010E941B1120E03AEC4AE95BE30E9497
:100DC000F910C21AD30AE40AF50AF694E794D79404
:100DD000C794C092A60881E08093A508FF90EF9089
:100DE000DF90CF90BF90AF909F908F90089590E04C
:100DF00080E00895CF92DF92EF92FF920F931F93BE
:100E0000CF93DF93EC01603282E07807CCF5653B4D
:100E1000710514F064EB70E0898128E830E0281B4C
:100E2000310987FD3395220F331F220F331F6901CC
:100E3000330FEE08FF088A8128E532E0281B3109CC
:100E400087FD3395220F331F220F331F032E000C13
:100E5000440B550B2C193D094E095F09DB0177FF47
:100E600002C0B0E0A0E00E94E61124EB30E040E0D8
:100E700050E00E94C711C20ED31EE41EF51EB6013B
:100E8000F8808BE08F1508F449C0898108E810E0EC
:100E9000081B110987FD1395000F111F000F111F6B
:100EA000601771077CF08A8108E512E0081B1109C0
:100EB00087FD1395000F111F000F111F6017710799
:100EC0000CF48B0160910028709101288091022818
:100ED0009091032820E432E44FE050E00E94F910A2
:100EE00084E0369527958A95E1F705501109209FF2
:100EF000C001219F900D309F900D11249C013695CB
:100F00002795369527958F2D90E0FC01EE0FFF1F5A
:100F1000E80FF91FE45FF74D21833283DF91CF9112
:100F20001F910F91FF90EF90DF90CF9008951F9346
:100F3000CF93DF93EC01162F88818C3008F047C0E7
:100F400061E070E0812F0E944C038881282F30E0FF
:100F5000D901AA0FBB1FFD01E20FF31FE45FF74D9C
:100F60001F736081607C612B608319821A824CE060
:100F7000642F0E94A711849FC001112450E040E01B
:100F8000BC01640F751FFB01EE0FFF1FE60FF71F7B
:100F9000E45FF74D608166FD12C04F5F5F4F4C30DC
:100FA000510571F784E08093A00A1092A10A81E0B4
:100FB0008093A50A8091A00A81608093A00A2A0FDD
:100FC0003B1FF901E45FF74D808180648083888155
:100FD000DF91CF911F910895CF93DF93C09108289F
:100FE000D091092880910428882381F0C43BD10541
:100FF00054F4BE018CE59AE20E94FA062196C09351
:101000000828D0930928DF91CF9108951C161D065A
:10101000D4F7BE018CE59AE20E94FA062197EFCF41
:10102000CF93DF93C0910628D0910728809105289F
:10103000882381F0C43BD10554F4BE0189E59AE2CE
:101040000E94FA062196C0930628D0930728DF91C4
:10105000CF9108951C161D06D4F7BE0189E59AE2CA
:101060000E94FA062197EFCFDC01ED91FC910088F8
:10107000F189E02D23E030E00994FC01019000208B
:10108000E9F73197AF01481B590BBC018EE699E295
:101090000C947B018F929F92AF92BF92CF92DF927E
:1010A000EF92FF920F931F93CF93DF93CDB7DEB7ED
:1010B000A197CDBFDEBF6C01990FEE08FF08F7FEC8
:1010C00044C06DE28EE699E20E9443028C01222721
:1010D0003327A9012C193D094E095F0919A2CE0138
:1010E00081967C019AE0892E912CA12CB12CCA0109
:1010F000B901A50194010E94F910605DF7016293A6
:101100007F01211531054105510589F790E080E007
:10111000309719F0CF010E943D08080F191F82ED8A
:1011200094E60E943D08800F911FA196CDBFDEBFBF
:10113000DF91CF911F910F91FF90EF90DF90CF90B3
:10114000BF90AF909F908F900895A701960119A22C
:101150008E010F5D1F4F8AE0C82ED12CE12CF12C9F
:10116000CA01B901A70196010E94F910605DF8015A
:1011700062938F01211531054105510589F730979B
:1011800029F0CF010E943D088C01C9CF10E000E09A
:10119000C6CF1F920F920FB60F9211242F933F9339
:1011A0004F935F936F937F938F939F93AF93BF936F
:1011B000EF93FF938EE699E20E94FE01FF91EF917B
:1011C000BF91AF919F918F917F916F915F914F915F
:1011D0003F912F910F900FBE0F901F9018951F9267
:1011E0000F920FB60F9211242F938F939F93EF932B
:1011F000FF93E0917A29F0917B29818181FD1BC0C9
:101200009081809180298F5F8F732091812982172F
:1012100041F0E0918029F0E0E259F64D918F809302
:101220008029FF91EF919F918F912F910F900FBE89
:101230000F901F9018958081F4CF1F920F920FB6D8
:101240000F9211242F933F934F935F936F937F934C
:101250008F939F93AF93BF934091592950915A29EF
:1012600060915B2970915C29809157299091582950
:101270002091632930916429420F531F611D711D14
:101280002091612930916229820F931F883E23E0CB
:10129000920730F0885E93404F5F5F4F6F4F7F4FF4
:1012A00080935729909358294093592950935A294C
:1012B00060935B2970935C2980915D2990915E29F0
:1012C000A0915F29B09160290196A11DB11D809365
:1012D0005D2990935E29A0935F29B093602981E0F6
:1012E0008093B60ABF91AF919F918F917F916F913B
:1012F0005F914F913F912F910F900FBE0F901F90D4
:1013000018951F920F920FB60F9211242F933F93AF
:101310004F935F936F937F938F939F93AF93BF93FD
:10132000CF93EF93FF93C091AB08C2FF0AC0109216
:101330004A29109249291092482984E00E94930476
:1013400014C0C6FF2FC080914729813051F480918D
:101350004A29E0914529F091462990E0099510929B
:101360004729C0FF14C00E94A304FF91EF91CF91C1
:10137000BF91AF919F918F917F916F915F914F91AD
:101380003F912F910F900FBE0F901F90189580E402
:101390008093AB0881E00E9493048091AB0885FFA5
:1013A000E4CFE1CFC7FF5CC0C3FF08C010924A2959
:1013B000109249291092482983E0C0CF8091A90852
:1013C00080668093A9088091AB0881FF2CC0809132
:1013D0004929882349F08091AB0884FF05C082E049
:1013E0008093AA0881E0AACF909149298091482949
:1013F0009817A8F4E09149298091402990914129BA
:10140000E80FF92FF11D80818093AD088091492963
:101410008F5F8093492983E08093AA08A6CF82E05A
:101420008093AA088BCF90914A29809144299817DC
:1014300090F48091AD08E0914A29209142293091A1
:101440004329E20FF32FF11D808380914A298F5F9A
:1014500080934A29E0CF86E08093AA0882E06ECF8D
:1014600085E06CCF1F920F920FB60F9211242F932D
:101470003F938F939F93EF93FF938091A508982FAD
:101480009C70E1F08091A50894E082FF93E0909336
:1014900055298093A50881E090E080934B29909393
:1014A0004C2910925629FF91EF919F918F913F9176
:1014B0002F910F900FBE0F901F90189586FF4EC072
:1014C00020915229909151298091A50884FF15C03F
:1014D00080914E29882379F083E08093A40885E0E9
:1014E000809355291092562981E090E080934B29F2
:1014F00090934C29D8CF81E0F0CF8091502982176A
:1015000090F4E09150298091532990915429E80F4B
:10151000F92FF11D80818093A808809150298F5F59
:1015200080935029C0CF80914F29891760F484E0BF
:1015300090E080934B2990934C2980914D298160B4
:101540008093A708B0CF80914E29882329F083E0AB
:101550008093A40881E0C4CF81E0FACF87FF40C028
:1015600090914F29809151299817D8F48091A8081B
:10157000E0914F2920913E2930913F29E20FF32F2E
:10158000F11D808380914F298F5F80934F29909127
:10159000512980914F298917D8F482E08093A408BB
:1015A00082CF80914E29882389F087E08093A40818
:1015B00082E0809355291092562981E090E0809333
:1015C0004B2990934C29109251296DCF85E0EECF95
:1015D00080914E29882311F087E0BACF85E0B8CFFB
:1015E00086E07ECF1F920F920FB60F9211240F93B9
:1015F0001F932F933F934F935F936F937F938F939B
:101600009F93AF93BF93CF93DF93EF93FF9380911B
:101610000A28C0910B28D0E087FF52C01092AC0A74
:101620001092AD0A80910A288F5F80930A288091DA
:101630000A28082E000C990B8C179D072CF480911A
:101640000A288C300CF46AC0C091AC0AD091AD0A63
:1016500060910028709101288091022890910328C0
:1016600020E432E44FE050E00E94F91054E0369557
:1016700027955A95E1F740E85EE3249FC001259F36
:10168000900D349F900D112496958795969587958A
:10169000AE0170E060E04C5F5F4F6F4F7F4F8C0199
:1016A00030E020E0401751076207730708F083C05D
:1016B0008093AC0A9093AD0A8FEF80930A2863C0A1
:1016C00080910A28082E000C990B8C179D070CF0AE
:1016D000A9CFE0910A288E2FEE0F990BFC01EE0F97
:1016E000FF1FE80FF91FE45FF74D808186FF9ACF57
:1016F000E0910A288E2FEE0F990BFC01EE0FFF1FD1
:10170000E80FF91FE45FF74D80818F73893208F08D
:1017100089CF70E060E00E94B90284CFE0910A288E
:101720008E2FEE0F990BFC01EE0FFF1FE80FF91F34
:10173000E45FF74D808186FF14C0E0910A288E2F68
:10174000EE0F990BFC01EE0FFF1FE80FF91FE45F8E
:10175000F74D80818F73893220F461E070E00E9440
:10176000B902E0910A288E2FEE0F990BFC01EE0FC3
:10177000FF1FE80FF91FE45FF74D8181928180938D
:10178000AC0A9093AD0A81E08093A60AFF91EF9195
:10179000DF91CF91BF91AF919F918F917F916F9189
:1017A0005F914F913F912F911F910F910F900FBE1D
:1017B0000F901F9018952496C093AC0AD093AD0A51
:1017C0007BCFCF93DF93C0910B28CC30A0F521E0E5
:1017D0002C0F20930B28FC01C083D0E060910028DF
:1017E00070910128809102289091032820E432E42E
:1017F0004FE050E00E94F91084E0369527958A95D5
:10180000E1F74CED55E0249FC001259F900D349FDA
:10181000900D11249C013695279536952795CE017C
:10182000880F991FC80FD91FC45FD74D29833A83EA
:10183000DF91CF9108952FEFFC012083F9CF109213
:1018400070291092712988EE93E0A0E0B0E08093B7
:10185000722990937329A0937429B093752924E970
:1018600034E620936E2930936F2920E638E02093E8
:101870007A2930937B292AE120937C292BE120933C
:101880007D2920E420937E291092802910928129BD
:10189000109282291092832926E2209384291092A3
:1018A0008529109286291092092A10920A2A80937B
:1018B0000B2A90930C2AA0930D2AB0930E2A8EEA3D
:1018C00094E68093072A9093082A1092192A10927E
:1018D0001A2A10921B2A10921C2A10921D2A10926A
:1018E0001E2A10921F2A1092202A1092212A10924A
:1018F000222A1092232A1092242A1092252A10922A
:10190000262A1092272A1092282AEFE6FAE287E880
:101910009AE2138214821582128211821082369604
:101920008E179F07B1F71092932A1092962A109261
:10193000912A1092922A1092A32A1092A62A10920B
:10194000A12A1092A22A80E680936C2A8093A72A6B
:101950008091742A8823E9F180917A2A811112C03A
:1019600081E080937A2A8AE69AE28093782A90939B
:10197000792A8DE08093752A8BE08093762A8CE01B
:101980008093772A87E080935F2A88E08093602A9B
:101990001092612A61E070E087E00E944C0370E0E1
:1019A00060E08091602A0E944C0380E49CE9A0E002
:1019B000B0E08093662A9093672AA093682AB09338
:1019C000692A8CE59AE20E94E10B89E59AE20C947F
:1019D000E10B8AE69AE28093722A9093732A88E058
:1019E00080936F2A8AE08093702A89E08093712A1D
:1019F000B3CF88ED90E084BF9093610080E094E2E3
:101A0000A4EFB0E08093002890930128A0930228CF
:101A1000B09303288091020686608093020680912D
:101A20000006816080930006809102068F7C80937F
:101A300002068091A0008F788093A000809102061A
:101A40008061809302061092E20581E08093E405B4
:101A500083E08093010A8FEF90E08093260A9093B1
:101A6000270A80E890E08093380A9093390A80939F
:101A70003A0A90933B0A80933C0A90933D0A8BE08C
:101A80008093000A8091E50581608093E50580914F
:101A9000E50582608093E505E0E8FAE037E02FEFA6
:101AA00090E885E031832487958780837096E03CB9
:101AB0004AE0F407B9F780E094E0809367299093B7
:101AC000682980916729909168292FEF30E0B9014A
:101AD0000E94B311609365297093662980916729EC
:101AE00090916829E8EEF3E0BF010E94B311609382
:101AF0006329709364298091672990916829BF01B7
:101B00000E94B31180936129909362292093BC0AAB
:101B10003093BD0A8091B50A81608093B50A84E054
:101B20008093B00A8091B00A81608093B00A789463
:101B300061E070E08CE10E94160361E070E08CE1EE
:101B40000E94B90261E070E08DE10E94160361E03D
:101B500070E08DE10E94B90261E070E083E20E94D2
:101B6000160361E070E083E20E94B90261E070E078
:101B70008EE10E94160361E070E08EE10E94B902DE
:101B80001092552A1092562A1092572A1092582ACB
:101B90001092152A1092162A1092172A1092182ABB
:101BA0000E942A046B017C014B015C0188EB880ECA
:101BB0008BE0981EA11CB11C0E942A046C157D05A7
:101BC0008E059F0528F086169706A806B906A0F789
:101BD00068EE73E080E090E00E94FA0340E855E28E
:101BE00060E070E08EE699E20E9434080E942A04C8
:101BF0006093152A7093162A8093172A9093182AB7
:101C000085ED94E60E943D080E942A046B017C0148
:101C10004B015C014AE0840E911CA11CB11C0E9486
:101C20002A046C157D058E059F0528F086169706FB
:101C3000A806B906A0F781E08093292A0E942A0409
:101C40006093152A7093162A8093172A9093182A66
:101C500086EE94E60E943D0887E09AE280936A2A25
:101C600090936B2A0E94920687E09AE20E94920665
:101C700060E080E00E948E0580E496E080936D2A0B
:101C800090936E2A6091A72A87E09AE20E948705C6
:101C900060E087E09AE20E94400587E09AE20E94B5
:101CA000600521E041E050E06091A72A87E09AE2D8
:101CB0000E94B00587E09AE20E940105C82F682FB4
:101CC0006F76606180E00E948E0563E08EEF0E9477
:101CD0008E056C2F80E00E948E0565E070E080E04C
:101CE00090E00E94FA036C2F616A80E00E948E05EA
:101CF000C6E06091A72A87E09AE20E9487056C2FD0
:101D000087E09AE20E9440050E945B050E945B0505
:101D10000E945B050E945B0587E09AE20E946005D5
:101D2000CC5FC63431F769E070E08CE59AE20E943E
:101D300097076AE070E089E59AE20E94970760E5FC
:101D400070E08CE59AE20E94FA066AEA70E089E5A2
:101D50009AE20E94FA0670E060E08EE00E941603AC
:101D600070E060E08FE00E94160340E855E260E01A
:101D700070E08EE699E20E94340880E0C82E80E090
:101D8000D82EC1E099E7E92EF12C80910828909196
:101D900009280E944A0880910628909107280E94ED
:101DA0004A0880916D298111A6C0009108281091E0
:101DB00009288091062890910728893791054CF0D1
:101DC0000630110534F010920528109204280E9464
:101DD0001008809106289091072888379105E1F531
:101DE000063011052CF18090692990906A29A09005
:101DF0006B29B0906C2920E030E0A901C501B40145
:101E00000E944210811102C00E942A040E942A04EA
:101E10000E944710A50194010E94351120E030E096
:101E20004AE754E40E94A2111816B4F40E94EC0789
:101E30008091082890910928059771F410926929DA
:101E400010926A2910926B2910926C29C093052870
:101E5000E0920628F092072800910828109109289E
:101E600080910628909107288937910544F1053023
:101E7000110529F58090692990906A29A0906B2915
:101E8000B0906C2920E030E0A901C501B4010E94A6
:101E90004210811102C00E942A040E942A040E945A
:101EA0004710A50194010E94351120E030E04AE777
:101EB00054E40E94A211181614F40E941008809194
:101EC0000628909107288A3A910569F40530110592
:101ED00051F41092692910926A2910926B2910927C
:101EE0006C29C0936D296AE070E080E090E00E9468
:101EF000FA03C8014ECF68EE73E080E090E00E94E4
:101F0000FA0380916D29882309F4AFC00091082855
:101F1000109109288091062890910728893791050A
:101F20004CF00530110531F410920528C0930428B7
:101F30000E94100880910628909107288837910503
:101F4000E9F5003511052CF58090692990906A29F2
:101F5000A0906B29B0906C2920E030E0A901C50168
:101F6000B4010E944210811102C00E942A040E9402
:101F70002A040E944710A50194010E94351120E017
:101F800030E04AE754E40E94A211181614F40E94AB
:101F9000EC0780910828909109288035910571F40B
:101FA0001092692910926A2910926B2910926C295B
:101FB000C0930528E0920628F0920728009108288F
:101FC000109109288091062890910728893791055A
:101FD00044F10035110529F58090692990906A290E
:101FE000A0906B29B0906C2920E030E0A901C501D8
:101FF000B4010E944210811102C00E942A040E9472
:102000002A040E944710A50194010E94351120E086
:1020100030E04AE754E40E94A211181614F40E941A
:10202000100880910628909107288A3A910569F452
:102030000035110551F41092692910926A29109205
:102040006B2910926C2910926D296AE070E080E093
:1020500090E00E94FA03C8010E944A088091062875
:10206000909107280E944A084CCF68EE73E080E008
:1020700090E00E94FA03C114D10409F486CE0E94B4
:10208000000083CE0E94841008F481E00895E89453
:1020900009C097FB3EF490958095709561957F4FB0
:1020A0008F4F9F4F9923A9F0F92F96E9BB2793955E
:1020B000F695879577956795B795F111F8CFFAF46E
:1020C000BB0F11F460FF1BC06F5F7F4F8F4F9F4F9F
:1020D00016C0882311F096E911C0772321F09EE8FD
:1020E000872F762F05C0662371F096E8862F70E063
:1020F00060E02AF09A95660F771F881FDAF7880F3D
:102100009695879597F90895990F0008550FAA0B92
:10211000E0E8FEEF16161706E807F907C0F01216FA
:102120001306E407F50798F0621B730B840B950BFD
:1021300039F40A2661F0232B242B252B21F4089552
:102140000A2609F4A140A6958FEF811D811D0895EF
:1021500097F99F6780E870E060E008959FEF80EC5A
:10216000089500240A9416161706180609060895FD
:1021700000240A9412161306140605060895092E63
:102180000394000C11F4882352F0BB0F40F4BF2BD2
:1021900011F460FF04C06F5F7F4F8F4F9F4F089512
:1021A00057FD9058440F551F59F05F3F71F0479508
:1021B000880F97FB991F61F09F3F79F087950895ED
:1021C000121613061406551FF2CF4695F1DF08C00C
:1021D000161617061806991FF1CF86957105610529
:1021E00008940895E894BB2766277727CB0197F9D1
:1021F0000895A1E21A2EAA1BBB1BFD010DC0AA1F48
:10220000BB1FEE1FFF1FA217B307E407F50720F05F
:10221000A21BB30BE40BF50B661F771F881F991FDA
:102220001A9469F760957095809590959B01AC0123
:10223000BD01CF0108950E942611A59F900DB49F66
:10224000900DA49F800D911D11240895A29FB001AF
:10225000B39FC001A39F700D811D1124911DB29FDA
:10226000700D811D1124911D08955058BB27AA2778
:102270000E944D110C94BF100E94B11038F00E94C2
:10228000B81020F039F49F3F19F426F40C94AE10E6
:102290000EF4E095E7FB0C94A810E92F0E94D010F3
:1022A00058F3BA17620773078407950720F079F48B
:1022B000A6F50C94F2100EF4E0950B2EBA2FA02D7B
:1022C0000B01B90190010C01CA01A0011124FF27E3
:1022D000591B99F0593F50F4503E68F11A16F040DE
:1022E000A22F232F342F4427585FF3CF46953795DD
:1022F0002795A795F0405395C9F77EF41F16BA0BA2
:10230000620B730B840BBAF09150A1F0FF0FBB1F4F
:10231000661F771F881FC2F70EC0BA0F621F731F98
:10232000841F48F4879577956795B795F7959E3FF5
:1023300008F0B0CF9395880F08F09927EE0F979586
:10234000879508950E94841008F48FEF0895991BD3
:1023500079E004C0991F961708F0961B881F7A959C
:10236000C9F780950895AA1BBB1B51E107C0AA1F9E
:10237000BB1FA617B70710F0A61BB70B881F991F26
:102380005A95A9F780959095BC01CD010895052E29
:1023900097FB1EF400940E94DE1157FD07D00E94A7
:1023A000F91007FC03D04EF40C94DE1150954095C3
:1023B000309521953F4F4F4F5F4F089590958095F1
:1023C000709561957F4F8F4F9F4F0895B7FF0C9485
:1023D0001B110E941B11821B930B0895EE0FFF1F10
:0C23E0000590F491E02D0994F894FFCFD3
:1023EC0000000003000102000001010000000000D9
:1023FC0000000000000000000000000000000000D1
:10240C0000000000000000000005040005060204A6
:10241C000103000100010200010203040502030391
:10242C000504060504060703070001020203000168
:10243C000706020200050201050004010104040460
:10244C000303030303030000020000030101000067
:10245C0001020202020505050503052010012040BA
:10246C0004100208010201020401020408102004F5
:10247C000808201040201040800880010204040845
:10248C00010280400000000043027B01A80194027D
:10249C00D901B701CB0134085103E501B6020000A4
:1024AC00000040051B05F706B80214050105F204EF
:1024BC0092064D064006D905870568056005B005EE
:1024CC00A805CB04C6040D0A00564D4450565F3186
:1024DC007C315F564D4450560A00564D4450525F65
:0124EC0000EF
:0A24ED000024F4000101AA005000D1
:0400000300000200F7
:00000001FF
