:100200000C9451010C9479010C9479010C947901AE
:100210000C9479010C9479010C9479010C94790176
:100220000C9479010C9479010C9479010C94790166
:100230000C9479010C9479010C94E7080C949809BA
:100240000C9479010C9479010C9479010C94790146
:100250000C9479010C9479010C9479010C94790136
:100260000C9479010C9479010C9479010C94790126
:100270000C9479010C9479010C9479010C94790116
:100280000C9479010C9479010C9479010C94790106
:100290000C9483080C9455080C942F080C94790145
:1002A0009D0A11241FBECFEFCDBFDFE3DEBF2AE2E0
:1002B000A4E0B8E201C01D92A437B207E1F718E24A
:1002C000A0E0B8E2E7EBF1E202C005900D92A430A5
:1002D000B107D9F711E0C1E5D1E004C02197FE01D3
:1002E0000E945310C035D107C9F70E94720B0C94BD
:1002F00059100C940001CF92DF92EF92FF920F936E
:100300001F932FB7F894C0903F29D0904029E090D8
:100310004129F09042292FBF6C0D7D1D8E1D9F1D20
:100320004FB7F89400913F2910914029209141291D
:10033000309142294FBF0C151D052E053F0528F0B1
:10034000601771078207930758F71F910F91FF906D
:10035000EF90DF90CF900895AF92BF92CF92DF924F
:10036000EF92FF920F931F93CF93DF936C017B016A
:100370008B01040F151FEB015E01AE18BF08C017FB
:10038000D10759F06991D601ED91FC910190F0816E
:10039000E02DC6010995892B79F7C501DF91CF9131
:1003A0001F910F91FF90EF90DF90CF90BF90AF9093
:1003B0000895FC0154894589252F30E0842F90E071
:1003C000821B930B541710F0CF9608950197089550
:1003D000FC0192898389981761F0A389AE0FBF2F22
:1003E000B11D59968C9193899F5F9F73938B90E079
:1003F00008958FEF9FEF0895FC01928983899817E4
:1004000031F08389E80FF11D818D90E008958FEF21
:100410009FEF0895FC0192892389892F90E0805CE9
:100420009F4F821B91098F7399270895CF93DF9374
:10043000EC01E881F9810680F781E02D0995EC85D2
:10044000FD8586818F738683EC85FD8585818F751B
:1004500085838B898A8B198ADF91CF910895CF93F9
:10046000DF93FC0194898589C485D585981306C0DE
:100470008D818F7D8D83DF91CF910895A589AE0FFA
:10048000BF2FB11DA75ABF4F2C91858990E00196CF
:100490008F739927858B80E48C83A485B58512960C
:1004A0002C93948985899813E6CFA485B5851596F4
:1004B0008C9115978F7D15968C9387898823D9F217
:1004C000808D80931301178AD6CFDC011C96ED91A5
:1004D000FC910FB607FE03C0258125FD04C02481D1
:1004E00025FD0C942F020895EF92FF920F931F9316
:1004F000CF93DF93EC0181E0898B9C898D899813E0
:100500001CC0AC85BD8514968C91149785FF15C0D1
:1005100012966C93AC85BD8580E414968C93EC8523
:10052000FD8585818F7D858381E090E0DF91CF918E
:100530001F910F91FF90EF9008958091110180FF1E
:1005400008C080911301888F8E898093130181E008
:100550008F8BF62E0C8910E00F5F1F4F0F73112742
:10056000E02E8D898E1104C0CE010E946502F9CF64
:10057000EC89EC0FFD2FF11DE75AFF4FF0820C8B39
:10058000EC85FD8585818062CECFCF93DF93FC0122
:1005900021892223C9F0EC018091110180FF08C05C
:1005A00080911301808F86898093130181E0878B6E
:1005B000EC85FD85858185FD03C0848186FD04C0B1
:1005C000CE010E946502F4CFDF91CF91089581E0C2
:1005D00008950895282F30E0F901EF5CFE4940812D
:1005E0004F3F09F44EC0893258F4F901EA54FF49EB
:1005F000E081EE2329F0E13099F010F0E63010F1BF
:10060000F901E85FFE49E081A0E2EA9FF0011124D0
:10061000FC5F8081842311F1672BF1F446830895F8
:10062000E091010AD901A152BF495C915C5F81E070
:1006300090E001C0880F5A95EAF780958E23809349
:10064000010ADECF80E1E89FF0011124E05AF54F66
:1006500081818F7E8183D4CF4583089521523F4984
:10066000D9018C91309771F08F3F61F07096E80F4F
:10067000F11D9FB7F8948081672B39F4877F8083C1
:100680009FBF0895F0E0E0E0F4CF8860F8CFCF930B
:10069000DF9390E0FC01EF5CFE4920812F3F71F079
:1006A000FC01E85FFE49A08130E2A39FD001112444
:1006B000BC5F6130710529F411962C93DF91CF91C5
:1006C000089581529F49EC01E881EF3F89F0CD0107
:1006D0004096E80FF92FF11D9FB7F89412962C93CE
:1006E00080816230710539F4886080839FBFE6CFD6
:1006F000F0E0E0E0F1CF877FF8CFCF92DF92EF928A
:10070000FF920F931F93CF93DF93EC016A017B015C
:10071000022F8989882339F0E881F9810288F389D9
:10072000E02DCE01099598898091E205892B80936F
:10073000E2051FB7F89460E070E281EA97E0A70154
:1007400096010E94D70F69017A018FEFC81AD80A63
:10075000E80AF80AF694E794D794C794EC85FD85E7
:1007600086818D7F8683EC85FD8586818683198AC7
:10077000A09123110A2E000CBB0BA70196010E9429
:100780004B1020E034E040E050E00E942C10EC855B
:10079000FD85C20ED31EE41EF51EC086D186EC85F3
:1007A000FD850783EC85FD858681806C8683EC85DD
:1007B000FD858581806885838E85893220F462E09D
:1007C00070E00E9447038F85893220F461E070E079
:1007D0000E94EA028F85893220F461E070E00E9475
:1007E00047031FBFDF91CF911F910F91FF90EF90B3
:1007F000DF90CF900895863018F08E508730A0F4A7
:100800008093060681E08093080680910B0680FFA6
:10081000FCCF2FB7F89490911006809111062FBF4E
:1008200089279827892708958FEF90E00895CF931F
:10083000DF938FB7F89420912D2930912E29409184
:100840002F2950913029E091BA0A9091B60A90FF71
:1008500006C02F5F3F4F4F4F5F4FE091BA0A8FBFE7
:10086000A0913729B0913829C0913529D0913629E6
:100870000E94F90FEC9F9001ED9F300D1124620F43
:10088000731F811D911DDF91CF9108958F929F92CB
:10089000AF92BF92CF92DF92EF92FF924B015C0139
:1008A0000E9417046B017C01A8EEB3E0A50194013E
:1008B0000E94F90FC60ED71EE81EF91EC616D706EF
:1008C000E806F90618F40E941704F8CF0E941704EE
:1008D0006C157D058E059F05C8F3FF90EF90DF90A6
:1008E000CF90BF90AF909F908F9008950F9391E01D
:1008F00090932A29109229296093272970932829F7
:1009000040932629209325291092242910922329E7
:1009100000932229880F8093212923E030E044E0CE
:1009200050E080912629882341F020931F2930939D
:100930002029809121298E7F0BC080912529882331
:1009400051F040931F2950932029809121298160E3
:100950008093A70808C080912629811104C0809146
:100960002529882311F3809129298823E1F3809197
:1009700029298330B1F280912529882321F08091A3
:1009800023290F91089580912929823031F08530F3
:1009900031F0813031F480E0F4CF81E0F2CF83E0B8
:1009A000F0CF84E0EECFE0EAF8E0918590669187A1
:1009B00022E030E020931F293093202980931129D1
:1009C00010921029089581E0809310291092112926
:1009D00093E09093AA089091AB0891FF10C01092F9
:1009E0001D29E0910E29F0910F29099580931C296A
:1009F00085E090E080931F2990932029089510921C
:100A00001E2980931B2986E090E0F4CF60930C2987
:100A100070930D29089560930A2970930B29089506
:100A2000E0910C29F0910D29309741F0109209299D
:100A300010920829099580910829089580E0089569
:100A4000E0910A29F0910B29309759F0309107294C
:100A500020910629321728F0109207298093062941
:100A600009940895E091072980910629E81730F448
:100A7000F0E0EA57F74D808190E008958FEF9FEF07
:100A8000089590910729809106292FEF3FEF98173D
:100A900048F4E92FF0E0EA57F74D208130E09F5FFE
:100AA00090930729C90108958091062990910729FB
:100AB000891B990B0895CF92DF92EF92FF920F93CB
:100AC0001F93CF93DF937C018A01EB016B01C40E6E
:100AD000D51ECC15DD0551F06991D701ED91FC9142
:100AE0000190F081E02DC7010995F3CFC801DF9196
:100AF000CF911F910F91FF90EF90DF90CF900895CD
:100B00002091082927FF08C021E030E0FC01228362
:100B1000338390E080E0089580910929E82FF0E088
:100B2000EA5FF74D60838F5F8093092980930829DE
:100B300081E090E00895682F8CED99E20C94800597
:100B4000DC01ED91FC91008CF18DE02D61E00994C8
:100B50000F9380911F29909120290197A1F48091F2
:100B60002A29811112C0062F20E04091082966E051
:100B700078E2809105280E9476041092092910924B
:100B800008290F91089580E0F8CF81E0F6CF6093B7
:100B9000052810920929109208290895CF93DF9310
:100BA000D82FC62F6091732A8CED99E20E94C70559
:100BB0006D2F8CED99E20E9480056C2F8CED99E2EF
:100BC0000E9480058CED99E2DF91CF910C94A005F5
:100BD000FF920F931F93CF93DF93C62FF42E152F01
:100BE000022FD32FFC0160818CED99E20E94C70592
:100BF000F4E0CF9FB00111246A5F7F4F8CED99E242
:100C00000E9480058F2D912F0E949B05812F90E0DF
:100C10000E949B05802F9D2F0E949B058D2F90E0A9
:100C20000E949B058CED99E2DF91CF911F910F916E
:100C3000FF900C94A00530E020E050E040E0CD961D
:100C40000C94E805FC0180E1689F900111248381E8
:100C5000948150E040E06081CD960C94E805DC0181
:100C6000ED91FC91048CF58DE02D21E009940F931A
:100C700086E898E2809312299093132980911F2986
:100C8000909120290197C1F480912A29811116C0E1
:100C9000FA014138510510F0E0E8F0E0022F862F0C
:100CA0002E2F40E070E060E00E9476041092072949
:100CB000809306290F91089580E0F8CF81E0F6CF68
:100CC0008F929F92AF92BF92CF92DF92EF92FF925C
:100CD000CF93DF9340348DE0580783E068077105B8
:100CE00008F44EC0411585E358078CE0680771058C
:100CF00008F43FC040385F446241710508F040C0CD
:100D0000C8E7D0E020E432E44FE050E080900028D3
:100D100090900128A0900228B0900328C501B4014A
:100D20000E94D70F69017A018AE0C81AD108E10848
:100D3000F108DE01A50194010E94F90F20E03AECD0
:100D40004AE95BE30E94D70FC21AD30AE40AF50A04
:100D5000F694E794D794C794C092A608DF91CF91F8
:100D6000FF90EF90DF90CF90BF90AF909F908F90CB
:100D70000895CCE2D1E020E83AE146E050E0C6CF69
:100D8000C8EED3E020EA36E841E050E0BFCFE0EA29
:100D9000F8E01382168281E0858314861186109212
:100DA0001F291092202908951092072910920629D0
:100DB000109209291092082980911F2990912029C9
:100DC000892BD9F482E090E080931F299093202909
:100DD00010921E2910921D2910921029109211298B
:100DE0001092042810921B29660F6093AC0881EEC4
:100DF0008093A90881E08093A30880E195E0809327
:100E00000E2990930F2986E098E2809314299093FD
:100E1000152980E295E08093192990931A2986E894
:100E200098E2809316299093172980E880931829D7
:100E300008958F929F92AF92BF92CF92DF92EF92DE
:100E4000FF921092072910920629109209291092F8
:100E5000082980911F2990912029892B09F045C0EC
:100E60008091E3058093E30581E090E080931F2962
:100E700090932029109223291092242910922A2934
:100E80001092292981EC8093A308809000289090EB
:100E90000128A0900228B0900328C501B40120EADF
:100EA00036E841E050E00E94D70F69017A018AE0FC
:100EB000C81AD108E108F108A8EEB3E0A501940131
:100EC0000E94F90F20E03AEC4AE95BE30E94D70F59
:100ED000C21AD30AE40AF50AF694E794D794C794A1
:100EE000C092A60881E08093A508FF90EF90DF9064
:100EF000CF90BF90AF909F908F90089590E080E04A
:100F00000895DC01ED91FC910088F189E02D23E04A
:100F100030E00994FC0101900020E9F73197AF011E
:100F2000481B590BBC0183E499E20C94AC018F92ED
:100F30009F92AF92BF92CF92DF92EF92FF920F9368
:100F40001F93CF93DF93CDB7DEB7A197CDBFDEBFA1
:100F50006C01990FEE08FF08F7FE44C06DE283E4D0
:100F600099E20E9474028C0122273327A9012C19CF
:100F70003D094E095F0919A2CE0181967C019AE0D4
:100F8000892E912CA12CB12CCA01B901A501940183
:100F90000E94D70F605DF70162937F012115310533
:100FA0004105510589F790E080E0309719F0CF01B5
:100FB0000E948A07080F191F8CE991E60E948A0790
:100FC000800F911FA196CDBFDEBFDF91CF911F9102
:100FD0000F91FF90EF90DF90CF90BF90AF909F90D8
:100FE0008F900895A701960119A28E010F5D1F4FE2
:100FF0008AE0C82ED12CE12CF12CCA01B901A7013D
:1010000096010E94D70F605DF80162938F01211550
:1010100031054105510589F7309729F0CF010E942C
:101020008A078C01C9CF10E000E0C6CFCF93DF93D1
:10103000EC018B819C8130E020E050E040E06A814F
:10104000CD960E94E8058B819C8130E020E040E055
:1010500050E16981CD96DF91CF910C94E8051F9204
:101060000F920FB60F9211242F933F934F935F93DC
:101070006F937F938F939F93AF93BF93EF93FF9360
:1010800083E499E20E942F02FF91EF91BF91AF910B
:101090009F918F917F916F915F914F913F912F9190
:1010A0000F900FBE0F901F9018951F920F920FB6C2
:1010B0000F9211242F938F939F93EF93FF93E091BF
:1010C0004F29F0915029818181FD1BC09081809131
:1010D00055298F5F8F7320915629821741F0E09137
:1010E0005529F0E0ED5BF64D918F80935529FF91E6
:1010F000EF919F918F912F910F900FBE0F901F90A6
:1011000018958081F4CF1F920F920FB60F92112481
:101110002F933F934F935F936F937F938F939F93FF
:10112000AF93BF9340913F2950914029609141294D
:101130007091422980912B2990912C29209133295B
:1011400030913429420F531F611D711D20913129A7
:1011500030913229820F931F883E23E0920730F0AE
:10116000885E93404F5F5F4F6F4F7F4F80932B2977
:1011700090932C2940933F29509340296093412913
:101180007093422980912D2990912E29A0912F2989
:10119000B09130290196A11DB11D80932D29909306
:1011A0002E29A0932F29B093302981E08093B60A8D
:1011B000BF91AF919F918F917F916F915F914F916F
:1011C0003F912F910F900FBE0F901F9018951F9277
:1011D0000F920FB60F9211242F933F934F935F936B
:1011E0006F937F938F939F93AF93BF93CF93EF931F
:1011F000FF93C091AB08C2FF0AC010921E29109243
:101200001D2910921C2984E00E94D30414C0C6FF3B
:101210002FC080911B29813051F480911E29E091CB
:101220001929F0911A2990E0099510921B29C0FF05
:1012300014C00E94E304FF91EF91CF91BF91AF9151
:101240009F918F917F916F915F914F913F912F91DE
:101250000F900FBE0F901F90189580E48093AB08FD
:1012600081E00E94D3048091AB0885FFE4CFE1CFF9
:10127000C7FF5CC0C3FF08C010921E2910921D2931
:1012800010921C2983E0C0CF8091A90880668093CA
:10129000A9088091AB0881FF2CC080911D2988236B
:1012A00049F08091AB0884FF05C082E08093AA08D2
:1012B00081E0AACF90911D2980911C299817A8F44C
:1012C000E0911D298091142990911529E80FF92F9B
:1012D000F11D80818093AD0880911D298F5F8093DF
:1012E0001D2983E08093AA08A6CF82E08093AA08F4
:1012F0008BCF90911E2980911829981790F4809196
:10130000AD08E0911E292091162930911729E20F8E
:10131000F32FF11D808380911E298F5F80931E29FA
:10132000E0CF86E08093AA0882E06ECF85E06CCFA4
:101330001F920F920FB60F9211242F933F938F930A
:101340009F93EF93FF938091A508982F9C70E1F0F5
:101350008091A50894E082FF93E0909329298093DF
:10136000A50881E090E080931F2990932029109296
:101370002A29FF91EF919F918F913F912F910F908B
:101380000FBE0F901F90189586FF4EC02091262902
:10139000909125298091A50884FF15C0809122296C
:1013A000882379F083E08093A40885E0809329293D
:1013B00010922A2981E090E080931F2990932029A0
:1013C000D8CF81E0F0CF80912429821790F4E0916A
:1013D00024298091272990912829E80FF92FF11DC0
:1013E00080818093A808809124298F5F809324298D
:1013F000C0CF80912329891760F484E090E0809326
:101400001F29909320298091212981608093A7082A
:10141000B0CF80912229882329F083E08093A4080B
:1014200081E0C4CF81E0FACF87FF40C090912329AB
:10143000809125299817D8F48091A808E091232954
:101440002091122930911329E20FF32FF11D80838F
:10145000809123298F5F8093232990912529809162
:1014600023298917D8F482E08093A40882CF809141
:101470002229882389F087E08093A40882E0809362
:10148000292910922A2981E090E080931F299093C6
:101490002029109225296DCF85E0EECF8091222959
:1014A000882311F087E0BACF85E0B8CF86E07ECF01
:1014B000CF92DF92EF92FF920F931F93E82FF92FB5
:1014C00005C0015011092109310961F1908196236C
:1014D0009417B9F305C0015011092109310911F11F
:1014E000908196239413F7CFC12CD12CE12CF12CB1
:1014F0000AC08FEFC81AD80AE80AF80A0C151D05A9
:101500002E053F0579F080818623841791F36C2D99
:101510007D2D8E2D9F2D1F910F91FF90EF90DF90CD
:10152000CF90089560E070E080E090E01F910F910F
:10153000FF90EF90DF90CF90089510924529109280
:10154000462988EE93E0A0E0B0E08093472990938D
:101550004829A0934929B0934A292EE531E62093E2
:1015600043293093442920E638E020934F293093D3
:1015700050292AE1209351292BE12093522920E47C
:1015800020935329109255291092562910925729C9
:101590001092582926E22093592910925A29109224
:1015A0005B291092DE291092DF298093E029909325
:1015B000E129A093E229B093E32988E791E680939B
:1015C000DC299093DD291092EE291092EF291092D8
:1015D000F0291092F1291092F2291092F329109219
:1015E000F4291092F5291092F6291092F7291092F9
:1015F000F8291092F9291092FA291092FB291092D9
:10160000FC291092FD29EBE3FAE283E59AE21382CA
:101610001482158212821182108236968E179F07CD
:10162000B1F710925F2A1092622A10925D2A1092EE
:101630005E2A10926F2A1092722A10926D2A1092CE
:101640006E2A80E68093382A8093732A8091402AFC
:101650008823C1F18BE39AE28093342A9093352A50
:101660008091462A811112C081E08093462A86E348
:101670009AE28093442A9093452A8DE08093412AF0
:101680008BE08093422A8CE08093432A81E49AE2A3
:101690008093322A9093332A82E090E080932E2A1E
:1016A00090932F2A83E090E08093302A9093312A00
:1016B00061E070E082E00E94470370E060E083E058
:1016C0000C94470386E39AE280933E2A90933F2A44
:1016D00088E080933B2A8AE080933C2A89E08093CB
:1016E0003D2AB8CF88ED90E084BF9093610080E000
:1016F00094E2A4EFB0E08093002890930128A09397
:101700000228B09303288091020686608093020627
:1017100080910006816080930006809102068F7C94
:10172000809302068091A0008F788093A000809122
:1017300002068061809302061092E20581E08093A8
:10174000E40583E08093010A8FEF90E08093260AFE
:101750009093270A80E890E08093380A9093390AA2
:1017600080933A0A90933B0A80933C0A90933D0AF7
:101770008BE08093000A8091E50581608093E50508
:101780008091E50582608093E505E0E8FAE037E0C6
:101790002FEF90E885E031832487958780837096CA
:1017A000E03C4AE0F407B9F780E094E08093372901
:1017B0009093382980913729909138292FEF30E084
:1017C000B9010E94181060933529709336298091D1
:1017D000372990913829E8EEF3E0BF010E941810F4
:1017E0006093332970933429809137299091382957
:1017F000BF010E94181080933129909332292093C1
:10180000BC0A3093BD0A8091B50A81608093B50A05
:1018100084E08093B00A8091B00A81608093B00A1E
:10182000789461E070E08CE10E94470361E070E031
:101830008CE10E94EA0261E070E08DE10E944703C2
:1018400061E070E08DE10E94EA0261E070E083E215
:101850000E94470361E070E083E20E94EA0261E0D7
:1018600070E08EE10E94470361E070E08EE10E942B
:10187000EA0210922A2A10922B2A10922C2A1092F5
:101880002D2A1092EA291092EB291092EC2910923D
:10189000ED2968EB7BE080E090E00E947B0168EE40
:1018A00073E080E090E00E94460440E855E260E08A
:1018B00070E083E499E20E9481072FB7F894809149
:1018C0003F2990914029A0914129B09142292FBFF1
:1018D0008093EA299093EB29A093EC29B093ED290A
:1018E0008FE991E60E948A076AE070E080E090E06C
:1018F0000E947B0181E08093FE292FB7F8948091AC
:101900003F2990914029A0914129B09142292FBFB0
:101910008093EA299093EB29A093EC29B093ED29C9
:1019200080EB91E60E948A078CED99E28093362A3B
:101930009093372A0E9419078CED99E20E941907AB
:1019400060E080E00E94CE0580E496E08093392A32
:1019500090933A2A6091732A8CED99E20E94C70510
:1019600060E08CED99E20E9480058CED99E20E9486
:10197000A00521E041E050E06091732A8CED99E2EE
:101980000E9437068CED99E20E944105C82F682F0E
:101990006F76606180E00E94CE0563E08EEF0E946A
:1019A000CE056C2F80E00E94CE0565E070E080E0FF
:1019B00090E00E9446046C2F616A80E00E94CE0590
:1019C000C0E030E020E050E040E06C2F83E79AE296
:1019D0000E94E805CF5FC031A1F770E060E08EE0C3
:1019E0000E94470370E060E08FE00E94470340E8F8
:1019F00055E260E070E083E499E20E94810720E410
:101A0000C22E22E4D22E2FE0E22EF12C3CE0832ED7
:101A1000912CA12CB12C48EC642E712C64E670E062
:101A200080E090E00E944604C091342AD091352A8B
:101A300069818B819C810E941B066A818B819C81BC
:101A40000E941B06C091322AD091332A69818B8172
:101A50009C810E941B066A818B819C810E941B06CF
:101A60008EE00E94FB0321E0813991400CF420E0DC
:101A700020933E298FE00E94FB0321E081399140B1
:101A80000CF420E020933D2980912E2A893220F405
:101A900070E060E00E94EA0283E090E00197F1F7D5
:101AA00080912E2A893220F461E070E00E94EA02DF
:101AB00083E290E00197F1F780912E2A893220F499
:101AC00070E060E00E94EA028091302A9091312A11
:101AD000CFEFDFEF893248F49927FC01EF5CFE4934
:101AE000C081885F9E49FC01D0816091002870917F
:101AF00001288091022890910328A70196010E9455
:101B0000D70F60E472E48FE090E00E94C70FA50158
:101B100094010E94D70F89019A0190E080E0D630AD
:101B200028F4F0E2DF9FC00111249C5F4C2F6C2F42
:101B300008960E94580A6115710581059105F9F012
:101B40006F5F7F4F8F4F9F4F1B012C0194E0220C42
:101B5000331C441C551C9A95D1F760910028709154
:101B600001288091022890910328A70196010E94E4
:101B7000D70FC201B1010E94D70FCA01B9010E945B
:101B8000A80E20E030E040E05FE30E94090F2AE267
:101B90003EE74CE05DE30E94090F1B012C0120E0B1
:101BA00030E0A9010E94A30E882351F020E030E02C
:101BB00048EC53E4C201B1010E941310181634F42A
:101BC000212C312C80E8482E8FEB582EC0913E29D5
:101BD000C11177C060923B2970923C2980913D29C8
:101BE000811176C06092392970923A2920E030E064
:101BF00040EE50E4C201B1010E94A30E87FF08C06D
:101C000010923B2910923C291092392910923A29BE
:101C10008C2F90E00E94970780913D2990E00E94D0
:101C2000970780913B2990913C290E9497078091CA
:101C3000392990913A290E94970720913B293091A8
:101C40003C29C091342AD091352A121613060CF083
:101C500046C0CE010E9416082091392930913A29B8
:101C6000C091322AD091332A121613060CF051C0BB
:101C7000CE010E94160860913B2970913C2977FFA4
:101C800003C07195619571098091342A9091352A2C
:101C90000E9422066091392970913A2977FF03C08A
:101CA0007195619571098091322A9091332A0E9431
:101CB000220680E090E0892B09F4B0CE0E9400005B
:101CC000ADCE8EEC9FEF80933B2990933C2986CF3D
:101CD000EEECFFEFE0933929F0933A2987CF8B811F
:101CE0009C816981232B41F40E941B066A818B81B0
:101CF0009C810E941B06B0CF0E941B068B819C8199
:101D000030E020E040E050E16A81CD960E94E80595
:101D1000A3CF8B819C816981232B41F40E941B06F8
:101D20006A818B819C810E941B06A5CF0E941B06A5
:101D30008B819C8130E020E040E050E16A81CD96CB
:101D40000E94E80598CF0E94E50E08F481E008950E
:101D5000E89409C097FB3EF4909580957095619545
:101D60007F4F8F4F9F4F9923A9F0F92F96E9BB27FB
:101D70009395F695879577956795B795F111F8CF77
:101D8000FAF4BB0F11F460FF1BC06F5F7F4F8F4FE2
:101D90009F4F16C0882311F096E911C0772321F0D8
:101DA0009EE8872F762F05C0662371F096E8862F70
:101DB00070E060E02AF09A95660F771F881FDAF7C7
:101DC000880F9695879597F90895990F0008550FF4
:101DD000AA0BE0E8FEEF16161706E807F907C0F0B1
:101DE00012161306E407F50798F0621B730B840BB9
:101DF000950B39F40A2661F0232B242B252B21F493
:101E000008950A2609F4A140A6958FEF811D811D32
:101E100008950E941C0F0C948D0F0E947F0F38F0C4
:101E20000E94860F20F0952311F00C94760F0C94ED
:101E30007C0F11240C94C10F0E949E0F70F3959F8C
:101E4000C1F3950F50E0551F629FF001729FBB27B1
:101E5000F00DB11D639FAA27F00DB11DAA1F649F4D
:101E60006627B00DA11D661F829F2227B00DA11D00
:101E7000621F739FB00DA11D621F839FA00D611D86
:101E8000221F749F3327A00D611D231F849F600DA7
:101E9000211D822F762F6A2F11249F5750409AF0D0
:101EA000F1F088234AF0EE0FFF1FBB1F661F771F5C
:101EB000881F91505040A9F79E3F510580F00C9427
:101EC000760F0C94C10F5F3FE4F3983ED4F38695F0
:101ED00077956795B795F795E7959F5FC1F7FE2BC7
:101EE000880F911D9695879597F9089597F99F67A3
:101EF00080E870E060E008959FEF80EC0895002492
:101F00000A941616170618060906089500240A945E
:101F100012161306140605060895092E0394000CE4
:101F200011F4882352F0BB0F40F4BF2B11F460FF73
:101F300004C06F5F7F4F8F4F9F4F089557FD90589C
:101F4000440F551F59F05F3F71F04795880F97FB7D
:101F5000991F61F09F3F79F0879508951216130637
:101F60001406551FF2CF4695F1DF08C01616170666
:101F70001806991FF1CF869571056105089408959B
:101F8000E894BB2766277727CB0197F90895DB01F3
:101F90008F939F930E94F90FBF91AF91A29F800DE5
:101FA000911DA39F900DB29F900D11240895A1E261
:101FB0001A2EAA1BBB1BFD010DC0AA1FBB1FEE1FC3
:101FC000FF1FA217B307E407F50720F0A21BB30B0E
:101FD000E40BF50B661F771F881F991F1A9469F78A
:101FE00060957095809590959B01AC01BD01CF01E6
:101FF00008950E940410A59F900DB49F900DA49F7A
:10200000800D911D11240895A29FB001B39FC001BE
:10201000A39F700D811D1124911DB29F700D811D14
:102020001124911D08950E94E50E08F48FEF089584
:10203000AA1BBB1B51E107C0AA1FBB1FA617B707EE
:1020400010F0A61BB70B881F991F5A95A9F780950A
:102050009095BC01CD010895052E97FB1EF40094C8
:102060000E94431057FD07D00E94D70F07FC03D0F2
:102070004EF40C94431050954095309521953F4F68
:102080004F4F5F4F089590958095709561957F4F64
:102090008F4F9F4F0895B7FF0C94F90F0E94F90FCF
:1020A000821B930B0895EE0FFF1F0590F491E02D16
:0620B0000994F894FFCF33
:1020B6000000000300010200000101000000000012
:1020C600000000000000000000000000000000000A
:1020D60000000000000000000005040005060204E0
:1020E60001030001000102000102030405020303CB
:1020F60005040605040607030700010202030001A2
:102106000706020200050201050004010104040499
:1021160003030303030300000200000301010000A0
:1021260001020202020505050503052010012040F3
:10213600041002080102010204010204081020042E
:10214600080820104020104080088001020404087E
:1021560001028040000000007402AC01D901C502F2
:102166000A02E801FC0181077D031602E70200006E
:10217600000080055B057E07E9025405410532052E
:102186001907D406C7066006C705A805A0053706C1
:102196002F060B0506050D0A00564D4450565F31B5
:1021A6007C315F564D4450560A00564D4450525F9E
:0121B6000028
:0421B7000024F4000C
:0400000300000200F7
:100000001124669A26E030E408C000000197E9F761
:100010008DB183278DB9215019F081E091E7F6CF9A
:1000200080911F138B3E69F48FEF80931F138DE92E
:1000300093E084BF909300108091021081FDFCCF6B
:1000400006C082E080930110E0E0F1E0099580ECC9
:1000500080930608A09123110A2E000CBB0BBC5FF5
:100060002CE530E00E9476007E5F8F4F9F4F2AE0A4
:1000700095958795779567952A95D1F760930808A8
:10008000709309088091E20581608093E205049AEB
:10009000E0E0F2E42DE933E040E41EC08091040882
:1000A00087FFFCCF80910008E11552E4F50711F4B9
:1000B000882391F0809302088193CF018F7799274D
:1000C000892B51F424BF309300108091021080FDE1
:1000D000FCCF8DB184278DB9CF0190548115904C00
:1000E000E8F288ED91E084BF909341000E947D008A
:1000F000B7FF0895821B930B0895A29FB001B39F91
:10010000C001A39F700D811D1124911DB29F700D20
:08011000811D1124911D0895C9
:02000004008278
:00000001FF