:100200000C9451010C9479010C9479010C947901AE
:100210000C9479010C9479010C9479010C94790176
:100220000C9479010C9479010C9479010C94790166
:100230000C9479010C9479010C9479010C94790156
:100240000C9479010C9479010C9479010C94790146
:100250000C9479010C9479010C9479010C94790136
:100260000C9479010C9479010C9479010C94790126
:100270000C9479010C9479010C9479010C94790116
:100280000C9479010C9479010C9479010C94790106
:100290000C9401050C94D3040C94AD040C947901D6
:1002A000AA0511241FBECFEFCDBFDFE3DEBF28E2DA
:1002B000A4E0B8E201C01D92A93FB207E1F718E23D
:1002C000A0E0B8E2EDE8F6E102C005900D92A4309E
:1002D000B107D9F711E0C1E5D1E004C02197FE01D3
:1002E0000E94CB0AC035D107C9F70E94F2050C94D1
:1002F000D10A0C940001CF92DF92EF92FF920F93FC
:100300001F932FB7F894C0901228D0901328E09034
:100310001428F09015282FBF6C0D7D1D8E1D9F1D7C
:100320004FB7F894009112281091132820911428A7
:10033000309115284FBF0C151D052E053F0528F0DF
:10034000601771078207930758F71F910F91FF906D
:10035000EF90DF90CF900895AF92BF92CF92DF924F
:10036000EF92FF920F931F93CF93DF936C017B016A
:100370008B01040F151FEB015E01AE18BF08C017FB
:10038000D10759F06991D601ED91FC910190F0816E
:10039000E02DC6010995892B79F7C501DF91CF9131
:1003A0001F910F91FF90EF90DF90CF90BF90AF9093
:1003B0000895FC0154894589252F30E0842F90E071
:1003C000821B930B541710F0CF9608950197089550
:1003D000FC0192898389981761F0A389AE0FBF2F22
:1003E000B11D59968C9193899F5F9F73938B90E079
:1003F00008958FEF9FEF0895FC01928983899817E4
:1004000031F08389E80FF11D818D90E008958FEF21
:100410009FEF0895FC0192892389892F90E0805CE9
:100420009F4F821B91098F7399270895CF93DF9374
:10043000EC01E881F9810680F781E02D0995EC85D2
:10044000FD8586818F738683EC85FD8585818F751B
:1004500085838B898A8B198ADF91CF910895CF93F9
:10046000DF93FC0194898589C485D585981306C0DE
:100470008D818F7D8D83DF91CF910895A589AE0FFA
:10048000BF2FB11DA75ABF4F2C91858990E00196CF
:100490008F739927858B80E48C83A485B58512960C
:1004A0002C93948985899813E6CFA485B5851596F4
:1004B0008C9115978F7D15968C9387898823D9F217
:1004C000808D80931301178AD6CFDC011C96ED91A5
:1004D000FC910FB607FE03C0258125FD04C02481D1
:1004E00025FD0C942F020895EF92FF920F931F9316
:1004F000CF93DF93EC0181E0898B9C898D899813E0
:100500001CC0AC85BD8514968C91149785FF15C0D1
:1005100012966C93AC85BD8580E414968C93EC8523
:10052000FD8585818F7D858381E090E0DF91CF918E
:100530001F910F91FF90EF9008958091110180FF1E
:1005400008C080911301888F8E898093130181E008
:100550008F8BF62E0C8910E00F5F1F4F0F73112742
:10056000E02E8D898E1104C0CE010E946502F9CF64
:10057000EC89EC0FFD2FF11DE75AFF4FF0820C8B39
:10058000EC85FD8585818062CECFCF93DF93FC0122
:1005900021892223C9F0EC018091110180FF08C05C
:1005A00080911301808F86898093130181E0878B6E
:1005B000EC85FD85858185FD03C0848186FD04C0B1
:1005C000CE010E946502F4CFDF91CF91089581E0C2
:1005D0000895282F30E0F901EF5DF94A40814F3F3F
:1005E00009F44EC0893258F4F901EA55FA4AE0811B
:1005F000EE2329F0E13099F010F0E63010F1F90126
:10060000E850FA4AE081A0E2EA9FF0011124FC5F81
:100610008081842311F1672BF1F446830895E091E2
:10062000010AD901A153BA4A5C915C5F81E090E074
:1006300001C0880F5A95EAF780958E238093010AAE
:10064000DECF80E1E89FF0011124E05AF54F81816F
:100650008F7E8183D4CF4583089521533A4AD901AF
:100660008C91309771F08F3F61F07096E80FF11D1B
:100670009FB7F8948081672B39F4877F80839FBF71
:100680000895F0E0E0E0F4CF8860F8CFCF93DF93F7
:1006900090E0FC01EF5DF94A20812F3F71F0FC01F1
:1006A000E850FA4AA08130E2A39FD0011124BC5F38
:1006B0006130710529F411962C93DF91CF91089543
:1006C00081539A4AEC01E881EF3F89F0CD014096D1
:1006D000E80FF92FF11D9FB7F89412962C938081A3
:1006E0006230710539F4886080839FBFE6CFF0E007
:1006F000E0E0F1CF877FF8CFCF92DF92EF92FF92C9
:100700000F931F93CF93DF93EC016A017B01022FBC
:100710008989882339F0E881F9810288F389E02DFD
:10072000CE01099598898091E205892B8093E20595
:100730001FB7F89460E070E281EA97E0A7019601A4
:100740000E94AE0969017A018FEFC81AD80AE80A37
:10075000F80AF694E794D794C794EC85FD858681D2
:100760008D7F8683EC85FD8586818683198AA0919D
:1007700023110A2E000CBB0BA70196010E94C30A8D
:1007800020E034E040E050E00E94A40AEC85FD85C2
:10079000C20ED31EE41EF51EC086D186EC85FD85F3
:1007A0000783EC85FD858681806C8683EC85FD85DD
:1007B0008581806885838E85893220F462E070E0CF
:1007C0000E9446038F85893220F461E070E00E9428
:1007D000E9028F85893220F461E070E00E944603CF
:1007E0001FBFDF91CF911F910F91FF90EF90DF908E
:1007F000CF900895CF93DF938FB7F8942091062878
:10080000309107284091082850910928E091BA0AB0
:100810009091B60A90FF06C02F5F3F4F4F4F5F4F3A
:10082000E091BA0A8FBFA0911028B0911128C09111
:100830000E28D0910F280E94D009EC9F9001ED9FC7
:10084000300D1124620F731F811D911DDF91CF9117
:1008500008958F929F92AF92BF92CF92DF92EF92C4
:10086000FF924B015C010E94FA036B017C01A8EE30
:10087000B3E0A50194010E94D009C60ED71EE81E60
:10088000F91EC616D706E806F90618F40E94FA0300
:10089000F8CF0E94FA036C157D058E059F05C8F3FD
:1008A000FF90EF90DF90CF90BF90AF909F908F9090
:1008B0000895DC01ED91FC910088F189E02D23E0A1
:1008C00030E00994FC0101900020E9F73197AF0175
:1008D000481B590BBC0186E198E20C94AC018F9245
:1008E0009F92AF92BF920F931F93CF93DF93CDB799
:1008F000DEB7A197CDBFDEBF19A2423008F44AE0AF
:100900008E010F5D1F4F842E912CB12CA12CA501BF
:1009100094010E94AE09E62FB901CA01EA30DCF465
:10092000E05DD801EE938D01232B242B252B79F745
:1009300090E080E0109719F0CD010E946204A1962A
:10094000CDBFDEBFDF91CF911F910F91BF90AF90D0
:100950009F908F900895E95CE4CF1F920F920FB69D
:100960000F9211242F933F934F935F936F937F9335
:100970008F939F93AF93BF93EF93FF9386E198E29A
:100980000E942F02FF91EF91BF91AF919F918F91A4
:100990007F916F915F914F913F912F910F900FBE7B
:1009A0000F901F9018951F920F920FB60F9211245F
:1009B0002F938F939F93EF93FF93E0912228F091D1
:1009C0002328818181FD1BC09081809128288F5F21
:1009D0008F7320912928821741F0E0912828F0E0B8
:1009E000EA5EF74D918F80932828FF91EF919F91B8
:1009F0008F912F910F900FBE0F901F9018958081AF
:100A0000F4CF1F920F920FB60F9211242F933F93A2
:100A10004F935F936F937F938F939F93AF93BF9306
:100A20004091122850911328609114287091152834
:100A3000809104289091052820910C2830910D2850
:100A4000420F531F611D711D20910A2830910B2800
:100A5000820F931F883E23E0920730F0885E934018
:100A60004F5F5F4F6F4F7F4F80930428909305280F
:100A700040931228509313286093142870931528DC
:100A80008091062890910728A0910828B091092804
:100A90000196A11DB11D8093062890930728A0936D
:100AA0000828B093092881E08093B60ABF91AF91DE
:100AB0009F918F917F916F915F914F913F912F9176
:100AC0000F900FBE0F901F901895CF92DF92EF926C
:100AD000FF920F931F93E82FF92F05C001501109C2
:100AE0002109310961F1908196239417B9F305C06A
:100AF000015011092109310911F1908196239413B4
:100B0000F7CFC12CD12CE12CF12C0AC08FEFC81AE1
:100B1000D80AE80AF80A0C151D052E053F0579F0DC
:100B200080818623841791F36C2D7D2D8E2D9F2D32
:100B30001F910F91FF90EF90DF90CF90089560E0AC
:100B400070E080E090E01F910F91FF90EF90DF90B8
:100B5000CF900895E6E1F8E21282138288EE93E0E6
:100B6000A0E0B0E084839583A683B7838EE496E506
:100B70008083918380E698E0848795878AE18687E1
:100B80008BE1878780E4808B128A138A148A158A06
:100B900086E2868B178A108EEFEAF8E216821782B9
:100BA0001086118612861386148615861686178679
:100BB000108A118A128A138A148A158AE5EFF8E2DC
:100BC00082E090E08083918383E090E0828393834E
:100BD00061E070E082E00E94460370E060E083E044
:100BE0000C94460388ED90E084BF9093610080E010
:100BF00094E2A4EFB0E08093002890930128A093A2
:100C00000228B09303288091020686608093020632
:100C100080910006816080930006809102068F7C9F
:100C2000809302068091A0008F788093A00080912D
:100C300002068061809302061092E20581E08093B3
:100C4000E40583E08093010A8FEF90E08093260A09
:100C50009093270A80E890E08093380A9093390AAD
:100C600080933A0A90933B0A80933C0A90933D0A02
:100C70008BE08093000A8091E50581608093E50513
:100C80008091E50582608093E505E0E8FAE037E0D1
:100C90002FEF90E885E031832487958780837096D5
:100CA000E03C4AE0F407B9F780E094E08093102834
:100CB0009093112880911028909111282FEF30E007
:100CC000B9010E94900A60930E2870930F288091BA
:100CD000102890911128E8EEF3E0BF010E94900ADD
:100CE00060930C2870930D28809110289091112802
:100CF000BF010E94900A80930A2890930B282093AA
:100D0000BC0A3093BD0A8091B50A81608093B50A10
:100D100084E08093B00A8091B00A81608093B00A29
:100D2000789461E070E08CE10E94460361E070E03D
:100D30008CE10E94E90261E070E08DE10E944603CF
:100D400061E070E08DE10E94E90261E070E083E221
:100D50000E94460361E070E083E20E94E90261E0E4
:100D600070E08EE10E94460361E070E08EE10E9437
:100D7000E9021092F1281092F2281092F3281092B2
:100D8000F4281092B1281092B2281092B328109231
:100D9000B42868EB7BE080E090E00E947B0168EE85
:100DA00073E080E090E00E94290440E855E260E0B2
:100DB00070E086E198E20E9459042FB7F894809180
:100DC000122890911328A0911428B09115282FBFB4
:100DD0008093B1289093B228A093B328B093B428FD
:100DE00084E696E50E9462046AE070E080E090E0AC
:100DF0000E947B0181E08093C5282FB7F8948091F1
:100E0000122890911328A0911428B09115282FBF73
:100E10008093B1289093B228A093B328B093B428BC
:100E200085E796E50E94620440E855E260E070E0E4
:100E300086E198E20E94590423E2222E312C30E40C
:100E4000832E32E4932E3FE0A32EB12CC0E0D0E0FD
:100E50008091F528893220F470E060E00E94E90278
:100E600083E090E00197F1F78091F528893220F432
:100E700061E070E00E94E902C1010197F1F7809101
:100E8000F528893220F470E060E00E94E902809148
:100E9000F7289091F828FF24FA941FEF893248F43C
:100EA0009927FC01EF5DF94AF08088509A4AFC01CD
:100EB0001081609100287091012880910228909102
:100EC0000328A50194010E94AE0960E472E48FE05A
:100ED00090E00E949E092CE030E040E050E00E944B
:100EE000AE0990E080E0163028F4F0E21F9FC001C8
:100EF00011249C5F89019A014F2D6F2D08960E9445
:100F00006505611571058105910501F16B017C0194
:100F10002FEFC21AD20AE20AF20A94E0CC0CDD1CCE
:100F2000EE1CFF1C9A95D1F7609100287091012862
:100F30008091022890910328A50194010E94AE0996
:100F4000C701B6010E94AE09CA01B9010E947F081B
:100F500020E030E040E05FE30E94E0082AE23EE764
:100F60004CE05DE30E94E0086B017C0120E030E092
:100F7000A9010E947A08882331F120E030E048EC92
:100F800053E4C701B6010E94860A1816E4F0A701CF
:100F90009601C701B6010E948B0A8823D1F08CE725
:100FA00096E50E9462048AE896E50E94620464EF76
:100FB00071E080E090E00E942904209709F448CF76
:100FC0000E94000045CFC12CD12C80E8E82E8FEB89
:100FD000F82E26013701E89477F82FEF3FEF4FE71F
:100FE0005FE7C301B2010E948B0A81110DC02FEF90
:100FF0003FEF4FE75FE7C301B2010E947A0818167E
:101000001CF480E896E5CDCF2FEF3FEF4FE75FE48C
:10101000C701B6010E94860A18161CF484E896E5FA
:10102000C0CF2FEF3FEF4FE75FECC701B6010E9443
:101030007A0887FDF3CF20E030E0A901C701B601AF
:101040000E947A0887FF09C06DE286E198E20E945B
:101050007402F7FAF094F7F8F0942AE037ED43EAD7
:101060005BE3C701B6010E94EB092B013C010E9422
:10107000570A6B017C010E947F089B01AC01C301F0
:10108000B2010E94EA092B013C014AE0C701B60106
:101090000E946F0488E896E50E94620420E030E038
:1010A00040E251E4C301B2010E94E0082B013C017F
:1010B0000E94570A6B01F12CE12C4AE0C701B601EE
:1010C0000E946F04C701B6010E947F089B01AC011A
:1010D000C301B2010E94EA0920E030E040E251E49D
:1010E0000E94E0080E94570A90E080E04AE00E94D7
:1010F0006F0459CF0E94BC0808F481E00895E89479
:1011000009C097FB3EF490958095709561957F4F4F
:101110008F4F9F4F9923A9F0F92F96E9BB279395FD
:10112000F695879577956795B795F111F8CFFAF40D
:10113000BB0F11F460FF1BC06F5F7F4F8F4F9F4F3E
:1011400016C0882311F096E911C0772321F09EE89C
:10115000872F762F05C0662371F096E8862F70E002
:1011600060E02AF09A95660F771F881FDAF7880FDC
:101170009695879597F90895990F0008550FAA0B32
:10118000E0E8FEEF16161706E807F907C0F012169A
:101190001306E407F50798F0621B730B840B950B9D
:1011A00039F40A2661F0232B242B252B21F40895F2
:1011B0000A2609F4A140A6958FEF811D811D08958F
:1011C0000E94F3080C9464090E94560938F00E94AA
:1011D0005D0920F0952311F00C944D090C945309EE
:1011E00011240C9498090E94750970F3959FC1F31E
:1011F000950F50E0551F629FF001729FBB27F00DC5
:10120000B11D639FAA27F00DB11DAA1F649F662719
:10121000B00DA11D661F829F2227B00DA11D621F68
:10122000739FB00DA11D621F839FA00D611D221F22
:10123000749F3327A00D611D231F849F600D211D06
:10124000822F762F6A2F11249F5750409AF0F1F089
:1012500088234AF0EE0FFF1FBB1F661F771F881FF2
:1012600091505040A9F79E3F510580F00C944D09D4
:101270000C9498095F3FE4F3983ED4F386957795F4
:101280006795B795F795E7959F5FC1F7FE2B880F98
:10129000911D9695879597F9089597F99F6780E82E
:1012A00070E060E008959FEF80EC089500240A94B8
:1012B0001616170618060906089500240A94121631
:1012C0001306140605060895092E0394000C11F464
:1012D000882352F0BB0F40F4BF2B11F460FF04C011
:1012E0006F5F7F4F8F4F9F4F089557FD9058440F6A
:1012F000551F59F05F3F71F04795880F97FB991F75
:1013000061F09F3F79F08795089512161306140631
:10131000551FF2CF4695F1DF08C0161617061806BE
:10132000991FF1CF86957105610508940895E89499
:10133000BB2766277727CB0197F90895DB018F93A9
:101340009F930E94D009BF91AF91A29F800D911DE4
:10135000A39F900DB29F900D11240895A1E21A2E23
:10136000AA1BBB1BFD010DC0AA1FBB1FEE1FFF1F49
:10137000A217B307E407F50720F0A21BB30BE40B99
:10138000F50B661F771F881F991F1A9469F76095E0
:101390007095809590959B01AC01BD01CF0108959A
:1013A0000E94DB09A59F900DB49F900DA49F800D16
:1013B000911D11240895A29FB001B39FC001A39F66
:1013C000700D811D1124911DB29F700D811D11247E
:1013D000911D08955058BB27AA270E94020A0C9419
:1013E00064090E94560938F00E945D0920F039F422
:1013F0009F3F19F426F40C9453090EF4E095E7FB93
:101400000C944D09E92F0E94750958F3BA17620729
:1014100073078407950720F079F4A6F50C949709D3
:101420000EF4E0950B2EBA2FA02D0B01B9019001FF
:101430000C01CA01A0011124FF27591B99F0593F43
:1014400050F4503E68F11A16F040A22F232F342F8B
:101450004427585FF3CF469537952795A795F040D9
:101460005395C9F77EF41F16BA0B620B730B840BEE
:10147000BAF09150A1F0FF0FBB1F661F771F881FA6
:10148000C2F70EC0BA0F621F731F841F48F48795FE
:1014900077956795B795F7959E3F08F0B0CF9395F0
:1014A000880F08F09927EE0F9795879508950E9469
:1014B0007D0988F09F5798F0B92F9927B751B0F060
:1014C000E1F0660F771F881F991F1AF0BA95C9F7C8
:1014D00014C0B13091F00E949709B1E008950C94C6
:1014E0009709672F782F8827B85F39F0B93FCCF379
:1014F000869577956795B395D9F73EF49095809545
:10150000709561957F4F8F4F9F4F08950E94BC0843
:1015100008F48FEF08950E94BC08880B990B08957A
:10152000AA1BBB1B51E107C0AA1FBB1FA617B70709
:1015300010F0A61BB70B881F991F5A95A9F7809525
:101540009095BC01CD010895052E97FB1EF40094E3
:101550000E94BB0A57FD07D00E94AE0907FC03D0CA
:101560004EF40C94BB0A50954095309521953F4F11
:101570004F4F5F4F089590958095709561957F4F7F
:101580008F4F9F4F0895B7FF0C94D0090E94D00948
:10159000821B930B0895EE0FFF1F0590F491E02D31
:0615A0000994F894FFCF4E
:1015A600000000030001020000010100000000002D
:1015B6000000000000000000000000000000000025
:1015C60000000000000000000005040005060204FB
:1015D60001030001000102000102030405020303E6
:1015E60005040605040607030700010202030001BD
:1015F60007060202000502010500040101040404B5
:1016060003030303030300000200000301010000BB
:10161600010202020205050505030520100120400E
:101626000410020801020102040102040810200449
:101636000808201040201040800880010204040899
:1016460001028040000000007402AC01D901C5020D
:101656000A02E801FC0159047C031602E702564D12
:101666004450565F317C315F564D4450560A005601
:101676004D4450525F006E616E00696E66006F7673
:0716860066002E000D0A00B2
:04168D000024F40041
:0400000300000200F7
:100000001124669A26E030E408C000000197E9F761
:100010008DB183278DB9215019F081E091E7F6CF9A
:1000200080911F138B3E69F48FEF80931F138DE92E
:1000300093E084BF909300108091021081FDFCCF6B
:1000400006C082E080930110E0E0F1E0099580ECC9
:1000500080930608A09123110A2E000CBB0BBC5FF5
:100060002CE530E00E9476007E5F8F4F9F4F2AE0A4
:1000700095958795779567952A95D1F760930808A8
:10008000709309088091E20581608093E205049AEB
:10009000E0E0F2E42DE933E040E41EC08091040882
:1000A00087FFFCCF80910008E11552E4F50711F4B9
:1000B000882391F0809302088193CF018F7799274D
:1000C000892B51F424BF309300108091021080FDE1
:1000D000FCCF8DB184278DB9CF0190548115904C00
:1000E000E8F288ED91E084BF909341000E947D008A
:1000F000B7FF0895821B930B0895A29FB001B39F91
:10010000C001A39F700D811D1124911DB29F700D20
:08011000811D1124911D0895C9
:02000004008278
:00000001FF